{
  "_format": "hh-sol-artifact-1",
  "contractName": "EnvironmentNFT",
  "sourceName": "contracts/goods/EnvironmentNFT.sol",
  "abi": [
    {
      "inputs": [
        {
          "internalType": "address",
          "name": "admin",
          "type": "address"
        },
        {
          "internalType": "address",
          "name": "operator",
          "type": "address"
        }
      ],
      "stateMutability": "nonpayable",
      "type": "constructor"
    },
    {
      "anonymous": false,
      "inputs": [
        {
          "indexed": false,
          "internalType": "address",
          "name": "previous",
          "type": "address"
        },
        {
          "indexed": false,
          "internalType": "address",
          "name": "new_",
          "type": "address"
        }
      ],
      "name": "AdminChanged",
      "type": "event"
    },
    {
      "anonymous": false,
      "inputs": [
        {
          "indexed": true,
          "internalType": "address",
          "name": "account",
          "type": "address"
        },
        {
          "indexed": true,
          "internalType": "address",
          "name": "operator",
          "type": "address"
        },
        {
          "indexed": false,
          "internalType": "bool",
          "name": "approved",
          "type": "bool"
        }
      ],
      "name": "ApprovalForAll",
      "type": "event"
    },
    {
      "anonymous": false,
      "inputs": [
        {
          "indexed": false,
          "internalType": "address",
          "name": "_initialOwner",
          "type": "address"
        },
        {
          "indexed": false,
          "internalType": "uint256",
          "name": "_id",
          "type": "uint256"
        },
        {
          "indexed": false,
          "internalType": "uint256",
          "name": "_initialSupply",
          "type": "uint256"
        },
        {
          "indexed": false,
          "internalType": "string",
          "name": "_uri",
          "type": "string"
        },
        {
          "indexed": false,
          "internalType": "address",
          "name": "_operator",
          "type": "address"
        }
      ],
      "name": "CreateEvent",
      "type": "event"
    },
    {
      "anonymous": false,
      "inputs": [
        {
          "indexed": false,
          "internalType": "address",
          "name": "userAddress",
          "type": "address"
        },
        {
          "indexed": false,
          "internalType": "address payable",
          "name": "relayerAddress",
          "type": "address"
        },
        {
          "indexed": false,
          "internalType": "bytes",
          "name": "functionSignature",
          "type": "bytes"
        }
      ],
      "name": "MetaTransactionExecuted",
      "type": "event"
    },
    {
      "anonymous": false,
      "inputs": [
        {
          "indexed": false,
          "internalType": "address",
          "name": "_to",
          "type": "address"
        },
        {
          "indexed": false,
          "internalType": "uint256",
          "name": "_id",
          "type": "uint256"
        },
        {
          "indexed": false,
          "internalType": "uint256",
          "name": "_quantity",
          "type": "uint256"
        }
      ],
      "name": "MintEvent",
      "type": "event"
    },
    {
      "anonymous": false,
      "inputs": [
        {
          "indexed": false,
          "internalType": "address",
          "name": "previous",
          "type": "address"
        },
        {
          "indexed": false,
          "internalType": "address",
          "name": "new_",
          "type": "address"
        }
      ],
      "name": "OperatorChanged",
      "type": "event"
    },
    {
      "anonymous": false,
      "inputs": [
        {
          "indexed": false,
          "internalType": "address",
          "name": "account",
          "type": "address"
        }
      ],
      "name": "Paused",
      "type": "event"
    },
    {
      "anonymous": false,
      "inputs": [
        {
          "indexed": false,
          "internalType": "uint256",
          "name": "_id",
          "type": "uint256"
        },
        {
          "indexed": false,
          "internalType": "uint256",
          "name": "previous",
          "type": "uint256"
        },
        {
          "indexed": false,
          "internalType": "uint256",
          "name": "new_",
          "type": "uint256"
        }
      ],
      "name": "PriceChanged",
      "type": "event"
    },
    {
      "anonymous": false,
      "inputs": [
        {
          "indexed": false,
          "internalType": "address",
          "name": "previous",
          "type": "address"
        },
        {
          "indexed": false,
          "internalType": "address",
          "name": "new_",
          "type": "address"
        }
      ],
      "name": "ProxyRegistryAddressChanged",
      "type": "event"
    },
    {
      "anonymous": false,
      "inputs": [
        {
          "indexed": true,
          "internalType": "bytes32",
          "name": "role",
          "type": "bytes32"
        },
        {
          "indexed": true,
          "internalType": "bytes32",
          "name": "previousAdminRole",
          "type": "bytes32"
        },
        {
          "indexed": true,
          "internalType": "bytes32",
          "name": "newAdminRole",
          "type": "bytes32"
        }
      ],
      "name": "RoleAdminChanged",
      "type": "event"
    },
    {
      "anonymous": false,
      "inputs": [
        {
          "indexed": true,
          "internalType": "bytes32",
          "name": "role",
          "type": "bytes32"
        },
        {
          "indexed": true,
          "internalType": "address",
          "name": "account",
          "type": "address"
        },
        {
          "indexed": true,
          "internalType": "address",
          "name": "sender",
          "type": "address"
        }
      ],
      "name": "RoleGranted",
      "type": "event"
    },
    {
      "anonymous": false,
      "inputs": [
        {
          "indexed": true,
          "internalType": "bytes32",
          "name": "role",
          "type": "bytes32"
        },
        {
          "indexed": true,
          "internalType": "address",
          "name": "account",
          "type": "address"
        },
        {
          "indexed": true,
          "internalType": "address",
          "name": "sender",
          "type": "address"
        }
      ],
      "name": "RoleRevoked",
      "type": "event"
    },
    {
      "anonymous": false,
      "inputs": [
        {
          "indexed": true,
          "internalType": "address",
          "name": "operator",
          "type": "address"
        },
        {
          "indexed": true,
          "internalType": "address",
          "name": "from",
          "type": "address"
        },
        {
          "indexed": true,
          "internalType": "address",
          "name": "to",
          "type": "address"
        },
        {
          "indexed": false,
          "internalType": "uint256[]",
          "name": "ids",
          "type": "uint256[]"
        },
        {
          "indexed": false,
          "internalType": "uint256[]",
          "name": "values",
          "type": "uint256[]"
        }
      ],
      "name": "TransferBatch",
      "type": "event"
    },
    {
      "anonymous": false,
      "inputs": [
        {
          "indexed": true,
          "internalType": "address",
          "name": "operator",
          "type": "address"
        },
        {
          "indexed": true,
          "internalType": "address",
          "name": "from",
          "type": "address"
        },
        {
          "indexed": true,
          "internalType": "address",
          "name": "to",
          "type": "address"
        },
        {
          "indexed": false,
          "internalType": "uint256",
          "name": "id",
          "type": "uint256"
        },
        {
          "indexed": false,
          "internalType": "uint256",
          "name": "value",
          "type": "uint256"
        }
      ],
      "name": "TransferSingle",
      "type": "event"
    },
    {
      "anonymous": false,
      "inputs": [
        {
          "indexed": false,
          "internalType": "string",
          "name": "value",
          "type": "string"
        },
        {
          "indexed": true,
          "internalType": "uint256",
          "name": "id",
          "type": "uint256"
        }
      ],
      "name": "URI",
      "type": "event"
    },
    {
      "anonymous": false,
      "inputs": [
        {
          "indexed": false,
          "internalType": "address",
          "name": "account",
          "type": "address"
        }
      ],
      "name": "Unpaused",
      "type": "event"
    },
    {
      "inputs": [],
      "name": "CREATOR_ROLE",
      "outputs": [
        {
          "internalType": "bytes32",
          "name": "",
          "type": "bytes32"
        }
      ],
      "stateMutability": "view",
      "type": "function"
    },
    {
      "inputs": [],
      "name": "DEFAULT_ADMIN_ROLE",
      "outputs": [
        {
          "internalType": "bytes32",
          "name": "",
          "type": "bytes32"
        }
      ],
      "stateMutability": "view",
      "type": "function"
    },
    {
      "inputs": [],
      "name": "ERC712_VERSION",
      "outputs": [
        {
          "internalType": "string",
          "name": "",
          "type": "string"
        }
      ],
      "stateMutability": "view",
      "type": "function"
    },
    {
      "inputs": [],
      "name": "MINTER_ROLE",
      "outputs": [
        {
          "internalType": "bytes32",
          "name": "",
          "type": "bytes32"
        }
      ],
      "stateMutability": "view",
      "type": "function"
    },
    {
      "inputs": [],
      "name": "OPERATOR_ROLE",
      "outputs": [
        {
          "internalType": "bytes32",
          "name": "",
          "type": "bytes32"
        }
      ],
      "stateMutability": "view",
      "type": "function"
    },
    {
      "inputs": [],
      "name": "PAUSER_ROLE",
      "outputs": [
        {
          "internalType": "bytes32",
          "name": "",
          "type": "bytes32"
        }
      ],
      "stateMutability": "view",
      "type": "function"
    },
    {
      "inputs": [],
      "name": "admin",
      "outputs": [
        {
          "internalType": "address",
          "name": "",
          "type": "address"
        }
      ],
      "stateMutability": "view",
      "type": "function"
    },
    {
      "inputs": [
        {
          "internalType": "address",
          "name": "account",
          "type": "address"
        },
        {
          "internalType": "uint256",
          "name": "id",
          "type": "uint256"
        }
      ],
      "name": "balanceOf",
      "outputs": [
        {
          "internalType": "uint256",
          "name": "",
          "type": "uint256"
        }
      ],
      "stateMutability": "view",
      "type": "function"
    },
    {
      "inputs": [
        {
          "internalType": "address[]",
          "name": "accounts",
          "type": "address[]"
        },
        {
          "internalType": "uint256[]",
          "name": "ids",
          "type": "uint256[]"
        }
      ],
      "name": "balanceOfBatch",
      "outputs": [
        {
          "internalType": "uint256[]",
          "name": "",
          "type": "uint256[]"
        }
      ],
      "stateMutability": "view",
      "type": "function"
    },
    {
      "inputs": [
        {
          "internalType": "address",
          "name": "_to",
          "type": "address"
        },
        {
          "internalType": "uint256[]",
          "name": "_ids",
          "type": "uint256[]"
        },
        {
          "internalType": "uint256[]",
          "name": "_quantities",
          "type": "uint256[]"
        },
        {
          "internalType": "bytes",
          "name": "_data",
          "type": "bytes"
        }
      ],
      "name": "batchMint",
      "outputs": [],
      "stateMutability": "nonpayable",
      "type": "function"
    },
    {
      "inputs": [
        {
          "internalType": "address",
          "name": "account",
          "type": "address"
        },
        {
          "internalType": "uint256",
          "name": "id",
          "type": "uint256"
        },
        {
          "internalType": "uint256",
          "name": "value",
          "type": "uint256"
        }
      ],
      "name": "burn",
      "outputs": [],
      "stateMutability": "nonpayable",
      "type": "function"
    },
    {
      "inputs": [
        {
          "internalType": "address",
          "name": "account",
          "type": "address"
        },
        {
          "internalType": "uint256[]",
          "name": "ids",
          "type": "uint256[]"
        },
        {
          "internalType": "uint256[]",
          "name": "values",
          "type": "uint256[]"
        }
      ],
      "name": "burnBatch",
      "outputs": [],
      "stateMutability": "nonpayable",
      "type": "function"
    },
    {
      "inputs": [
        {
          "internalType": "address",
          "name": "_newAdmin",
          "type": "address"
        }
      ],
      "name": "changeAdmin",
      "outputs": [],
      "stateMutability": "nonpayable",
      "type": "function"
    },
    {
      "inputs": [
        {
          "internalType": "address",
          "name": "_newOperator",
          "type": "address"
        }
      ],
      "name": "changeOperator",
      "outputs": [],
      "stateMutability": "nonpayable",
      "type": "function"
    },
    {
      "inputs": [
        {
          "internalType": "uint256",
          "name": "_id",
          "type": "uint256"
        },
        {
          "internalType": "uint256",
          "name": "_price",
          "type": "uint256"
        }
      ],
      "name": "changePriceToken",
      "outputs": [],
      "stateMutability": "nonpayable",
      "type": "function"
    },
    {
      "inputs": [
        {
          "internalType": "address",
          "name": "_initialOwner",
          "type": "address"
        },
        {
          "internalType": "uint256",
          "name": "_id",
          "type": "uint256"
        },
        {
          "internalType": "uint256",
          "name": "_initialSupply",
          "type": "uint256"
        },
        {
          "internalType": "string",
          "name": "_uri",
          "type": "string"
        },
        {
          "internalType": "bytes",
          "name": "_data",
          "type": "bytes"
        },
        {
          "internalType": "uint256",
          "name": "_price",
          "type": "uint256"
        },
        {
          "internalType": "uint256",
          "name": "_max",
          "type": "uint256"
        }
      ],
      "name": "create",
      "outputs": [
        {
          "internalType": "uint256",
          "name": "",
          "type": "uint256"
        }
      ],
      "stateMutability": "nonpayable",
      "type": "function"
    },
    {
      "inputs": [
        {
          "internalType": "address",
          "name": "recipient",
          "type": "address"
        },
        {
          "internalType": "uint256",
          "name": "initialSupply",
          "type": "uint256"
        },
        {
          "internalType": "string",
          "name": "tokenURI",
          "type": "string"
        },
        {
          "internalType": "uint256",
          "name": "price",
          "type": "uint256"
        },
        {
          "internalType": "uint256",
          "name": "max",
          "type": "uint256"
        }
      ],
      "name": "createNFT",
      "outputs": [
        {
          "internalType": "uint256",
          "name": "",
          "type": "uint256"
        }
      ],
      "stateMutability": "nonpayable",
      "type": "function"
    },
    {
      "inputs": [
        {
          "internalType": "uint256",
          "name": "",
          "type": "uint256"
        }
      ],
      "name": "creators",
      "outputs": [
        {
          "internalType": "address",
          "name": "",
          "type": "address"
        }
      ],
      "stateMutability": "view",
      "type": "function"
    },
    {
      "inputs": [
        {
          "internalType": "address",
          "name": "userAddress",
          "type": "address"
        },
        {
          "internalType": "bytes",
          "name": "functionSignature",
          "type": "bytes"
        },
        {
          "internalType": "bytes32",
          "name": "sigR",
          "type": "bytes32"
        },
        {
          "internalType": "bytes32",
          "name": "sigS",
          "type": "bytes32"
        },
        {
          "internalType": "uint8",
          "name": "sigV",
          "type": "uint8"
        }
      ],
      "name": "executeMetaTransaction",
      "outputs": [
        {
          "internalType": "bytes",
          "name": "",
          "type": "bytes"
        }
      ],
      "stateMutability": "nonpayable",
      "type": "function"
    },
    {
      "inputs": [
        {
          "internalType": "uint256",
          "name": "_id",
          "type": "uint256"
        }
      ],
      "name": "exists",
      "outputs": [
        {
          "internalType": "bool",
          "name": "",
          "type": "bool"
        }
      ],
      "stateMutability": "view",
      "type": "function"
    },
    {
      "inputs": [],
      "name": "getChainId",
      "outputs": [
        {
          "internalType": "uint256",
          "name": "",
          "type": "uint256"
        }
      ],
      "stateMutability": "view",
      "type": "function"
    },
    {
      "inputs": [
        {
          "internalType": "uint256",
          "name": "id",
          "type": "uint256"
        }
      ],
      "name": "getCreator",
      "outputs": [
        {
          "internalType": "address",
          "name": "sender",
          "type": "address"
        }
      ],
      "stateMutability": "view",
      "type": "function"
    },
    {
      "inputs": [],
      "name": "getDomainSeperator",
      "outputs": [
        {
          "internalType": "bytes32",
          "name": "",
          "type": "bytes32"
        }
      ],
      "stateMutability": "view",
      "type": "function"
    },
    {
      "inputs": [
        {
          "internalType": "uint256",
          "name": "_id",
          "type": "uint256"
        }
      ],
      "name": "getMaxSupplyToken",
      "outputs": [
        {
          "internalType": "uint256",
          "name": "",
          "type": "uint256"
        }
      ],
      "stateMutability": "view",
      "type": "function"
    },
    {
      "inputs": [
        {
          "internalType": "address",
          "name": "user",
          "type": "address"
        }
      ],
      "name": "getNonce",
      "outputs": [
        {
          "internalType": "uint256",
          "name": "nonce",
          "type": "uint256"
        }
      ],
      "stateMutability": "view",
      "type": "function"
    },
    {
      "inputs": [
        {
          "internalType": "uint256",
          "name": "_id",
          "type": "uint256"
        }
      ],
      "name": "getPriceToken",
      "outputs": [
        {
          "internalType": "uint256",
          "name": "",
          "type": "uint256"
        }
      ],
      "stateMutability": "view",
      "type": "function"
    },
    {
      "inputs": [
        {
          "internalType": "bytes32",
          "name": "role",
          "type": "bytes32"
        }
      ],
      "name": "getRoleAdmin",
      "outputs": [
        {
          "internalType": "bytes32",
          "name": "",
          "type": "bytes32"
        }
      ],
      "stateMutability": "view",
      "type": "function"
    },
    {
      "inputs": [
        {
          "internalType": "bytes32",
          "name": "role",
          "type": "bytes32"
        },
        {
          "internalType": "uint256",
          "name": "index",
          "type": "uint256"
        }
      ],
      "name": "getRoleMember",
      "outputs": [
        {
          "internalType": "address",
          "name": "",
          "type": "address"
        }
      ],
      "stateMutability": "view",
      "type": "function"
    },
    {
      "inputs": [
        {
          "internalType": "bytes32",
          "name": "role",
          "type": "bytes32"
        }
      ],
      "name": "getRoleMemberCount",
      "outputs": [
        {
          "internalType": "uint256",
          "name": "",
          "type": "uint256"
        }
      ],
      "stateMutability": "view",
      "type": "function"
    },
    {
      "inputs": [
        {
          "internalType": "bytes32",
          "name": "role",
          "type": "bytes32"
        },
        {
          "internalType": "address",
          "name": "account",
          "type": "address"
        }
      ],
      "name": "grantRole",
      "outputs": [],
      "stateMutability": "nonpayable",
      "type": "function"
    },
    {
      "inputs": [
        {
          "internalType": "bytes32",
          "name": "role",
          "type": "bytes32"
        },
        {
          "internalType": "address",
          "name": "account",
          "type": "address"
        }
      ],
      "name": "hasRole",
      "outputs": [
        {
          "internalType": "bool",
          "name": "",
          "type": "bool"
        }
      ],
      "stateMutability": "view",
      "type": "function"
    },
    {
      "inputs": [
        {
          "internalType": "address",
          "name": "_owner",
          "type": "address"
        },
        {
          "internalType": "address",
          "name": "_operator",
          "type": "address"
        }
      ],
      "name": "isApprovedForAll",
      "outputs": [
        {
          "internalType": "bool",
          "name": "isOperator",
          "type": "bool"
        }
      ],
      "stateMutability": "view",
      "type": "function"
    },
    {
      "inputs": [
        {
          "internalType": "uint256",
          "name": "",
          "type": "uint256"
        }
      ],
      "name": "max_supply_tokens",
      "outputs": [
        {
          "internalType": "uint256",
          "name": "",
          "type": "uint256"
        }
      ],
      "stateMutability": "view",
      "type": "function"
    },
    {
      "inputs": [
        {
          "internalType": "address",
          "name": "_to",
          "type": "address"
        },
        {
          "internalType": "uint256",
          "name": "_id",
          "type": "uint256"
        },
        {
          "internalType": "uint256",
          "name": "_quantity",
          "type": "uint256"
        },
        {
          "internalType": "bytes",
          "name": "_data",
          "type": "bytes"
        }
      ],
      "name": "mint",
      "outputs": [],
      "stateMutability": "nonpayable",
      "type": "function"
    },
    {
      "inputs": [
        {
          "internalType": "address",
          "name": "to",
          "type": "address"
        },
        {
          "internalType": "uint256[]",
          "name": "ids",
          "type": "uint256[]"
        },
        {
          "internalType": "uint256[]",
          "name": "amounts",
          "type": "uint256[]"
        },
        {
          "internalType": "bytes",
          "name": "data",
          "type": "bytes"
        }
      ],
      "name": "mintBatch",
      "outputs": [],
      "stateMutability": "nonpayable",
      "type": "function"
    },
    {
      "inputs": [],
      "name": "name",
      "outputs": [
        {
          "internalType": "string",
          "name": "",
          "type": "string"
        }
      ],
      "stateMutability": "view",
      "type": "function"
    },
    {
      "inputs": [],
      "name": "newItemId",
      "outputs": [
        {
          "internalType": "uint256",
          "name": "",
          "type": "uint256"
        }
      ],
      "stateMutability": "view",
      "type": "function"
    },
    {
      "inputs": [],
      "name": "operator",
      "outputs": [
        {
          "internalType": "address",
          "name": "",
          "type": "address"
        }
      ],
      "stateMutability": "view",
      "type": "function"
    },
    {
      "inputs": [],
      "name": "pause",
      "outputs": [],
      "stateMutability": "nonpayable",
      "type": "function"
    },
    {
      "inputs": [],
      "name": "paused",
      "outputs": [
        {
          "internalType": "bool",
          "name": "",
          "type": "bool"
        }
      ],
      "stateMutability": "view",
      "type": "function"
    },
    {
      "inputs": [
        {
          "internalType": "uint256",
          "name": "",
          "type": "uint256"
        }
      ],
      "name": "price_tokens",
      "outputs": [
        {
          "internalType": "uint256",
          "name": "",
          "type": "uint256"
        }
      ],
      "stateMutability": "view",
      "type": "function"
    },
    {
      "inputs": [],
      "name": "proxyRegistryAddress",
      "outputs": [
        {
          "internalType": "address",
          "name": "",
          "type": "address"
        }
      ],
      "stateMutability": "view",
      "type": "function"
    },
    {
      "inputs": [
        {
          "internalType": "bytes32",
          "name": "role",
          "type": "bytes32"
        },
        {
          "internalType": "address",
          "name": "account",
          "type": "address"
        }
      ],
      "name": "renounceRole",
      "outputs": [],
      "stateMutability": "nonpayable",
      "type": "function"
    },
    {
      "inputs": [
        {
          "internalType": "bytes32",
          "name": "role",
          "type": "bytes32"
        },
        {
          "internalType": "address",
          "name": "account",
          "type": "address"
        }
      ],
      "name": "revokeRole",
      "outputs": [],
      "stateMutability": "nonpayable",
      "type": "function"
    },
    {
      "inputs": [
        {
          "internalType": "uint256",
          "name": "",
          "type": "uint256"
        }
      ],
      "name": "royalties",
      "outputs": [
        {
          "internalType": "address",
          "name": "recipient",
          "type": "address"
        },
        {
          "internalType": "uint24",
          "name": "amount",
          "type": "uint24"
        },
        {
          "internalType": "bool",
          "name": "isValue",
          "type": "bool"
        }
      ],
      "stateMutability": "view",
      "type": "function"
    },
    {
      "inputs": [
        {
          "internalType": "uint256",
          "name": "_tokenId",
          "type": "uint256"
        },
        {
          "internalType": "uint256",
          "name": "_salePrice",
          "type": "uint256"
        }
      ],
      "name": "royaltyInfo",
      "outputs": [
        {
          "internalType": "address",
          "name": "receiver",
          "type": "address"
        },
        {
          "internalType": "uint256",
          "name": "royaltyAmount",
          "type": "uint256"
        }
      ],
      "stateMutability": "view",
      "type": "function"
    },
    {
      "inputs": [
        {
          "internalType": "address",
          "name": "from",
          "type": "address"
        },
        {
          "internalType": "address",
          "name": "to",
          "type": "address"
        },
        {
          "internalType": "uint256[]",
          "name": "ids",
          "type": "uint256[]"
        },
        {
          "internalType": "uint256[]",
          "name": "amounts",
          "type": "uint256[]"
        },
        {
          "internalType": "bytes",
          "name": "data",
          "type": "bytes"
        }
      ],
      "name": "safeBatchTransferFrom",
      "outputs": [],
      "stateMutability": "nonpayable",
      "type": "function"
    },
    {
      "inputs": [
        {
          "internalType": "address",
          "name": "from",
          "type": "address"
        },
        {
          "internalType": "address",
          "name": "to",
          "type": "address"
        },
        {
          "internalType": "uint256",
          "name": "id",
          "type": "uint256"
        },
        {
          "internalType": "uint256",
          "name": "amount",
          "type": "uint256"
        },
        {
          "internalType": "bytes",
          "name": "data",
          "type": "bytes"
        }
      ],
      "name": "safeTransferFrom",
      "outputs": [],
      "stateMutability": "nonpayable",
      "type": "function"
    },
    {
      "inputs": [
        {
          "internalType": "address",
          "name": "operator",
          "type": "address"
        },
        {
          "internalType": "bool",
          "name": "approved",
          "type": "bool"
        }
      ],
      "name": "setApprovalForAll",
      "outputs": [],
      "stateMutability": "nonpayable",
      "type": "function"
    },
    {
      "inputs": [
        {
          "internalType": "address",
          "name": "_to",
          "type": "address"
        },
        {
          "internalType": "uint256[]",
          "name": "_ids",
          "type": "uint256[]"
        }
      ],
      "name": "setCreator",
      "outputs": [],
      "stateMutability": "nonpayable",
      "type": "function"
    },
    {
      "inputs": [
        {
          "internalType": "uint256",
          "name": "_tokenId",
          "type": "uint256"
        },
        {
          "internalType": "string",
          "name": "_newURI",
          "type": "string"
        }
      ],
      "name": "setCustomURI",
      "outputs": [],
      "stateMutability": "nonpayable",
      "type": "function"
    },
    {
      "inputs": [
        {
          "internalType": "address",
          "name": "_proxyRegistryAddress",
          "type": "address"
        }
      ],
      "name": "setProxyRegistryAddress",
      "outputs": [],
      "stateMutability": "nonpayable",
      "type": "function"
    },
    {
      "inputs": [
        {
          "internalType": "uint256",
          "name": "_tokenId",
          "type": "uint256"
        },
        {
          "internalType": "address",
          "name": "_recipient",
          "type": "address"
        },
        {
          "internalType": "uint256",
          "name": "_value",
          "type": "uint256"
        }
      ],
      "name": "setTokenRoyalty",
      "outputs": [],
      "stateMutability": "nonpayable",
      "type": "function"
    },
    {
      "inputs": [
        {
          "internalType": "string",
          "name": "_newURI",
          "type": "string"
        }
      ],
      "name": "setURI",
      "outputs": [],
      "stateMutability": "nonpayable",
      "type": "function"
    },
    {
      "inputs": [
        {
          "internalType": "bytes4",
          "name": "interfaceId",
          "type": "bytes4"
        }
      ],
      "name": "supportsInterface",
      "outputs": [
        {
          "internalType": "bool",
          "name": "",
          "type": "bool"
        }
      ],
      "stateMutability": "view",
      "type": "function"
    },
    {
      "inputs": [],
      "name": "symbol",
      "outputs": [
        {
          "internalType": "string",
          "name": "",
          "type": "string"
        }
      ],
      "stateMutability": "view",
      "type": "function"
    },
    {
      "inputs": [
        {
          "internalType": "uint256",
          "name": "",
          "type": "uint256"
        }
      ],
      "name": "tokenSupply",
      "outputs": [
        {
          "internalType": "uint256",
          "name": "",
          "type": "uint256"
        }
      ],
      "stateMutability": "view",
      "type": "function"
    },
    {
      "inputs": [
        {
          "internalType": "uint256",
          "name": "_id",
          "type": "uint256"
        }
      ],
      "name": "totalSupply",
      "outputs": [
        {
          "internalType": "uint256",
          "name": "",
          "type": "uint256"
        }
      ],
      "stateMutability": "view",
      "type": "function"
    },
    {
      "inputs": [],
      "name": "unpause",
      "outputs": [],
      "stateMutability": "nonpayable",
      "type": "function"
    },
    {
      "inputs": [
        {
          "internalType": "uint256",
          "name": "_id",
          "type": "uint256"
        }
      ],
      "name": "uri",
      "outputs": [
        {
          "internalType": "string",
          "name": "",
          "type": "string"
        }
      ],
      "stateMutability": "view",
      "type": "function"
    },
    {
      "inputs": [
        {
          "internalType": "address",
          "name": "_to",
          "type": "address"
        },
        {
          "internalType": "uint256",
          "name": "_id",
          "type": "uint256"
        },
        {
          "internalType": "uint256",
          "name": "_quantity",
          "type": "uint256"
        },
        {
          "internalType": "bytes",
          "name": "_data",
          "type": "bytes"
        }
      ],
      "name": "userMint",
      "outputs": [],
      "stateMutability": "payable",
      "type": "function"
    },
    {
      "inputs": [
        {
          "internalType": "address",
          "name": "_to",
          "type": "address"
        }
      ],
      "name": "withdraw",
      "outputs": [],
      "stateMutability": "nonpayable",
      "type": "function"
    }
  ],
  "bytecode": "0x60806040526005805461ff00191690553480156200001c57600080fd5b506040516200666b3803806200666b8339810160408190526200003f9162000c8a565b60405180604001604052806011815260200170526f766520456e7669726f6e6d656e747360781b8152506040518060400160405280600381526020016252457360e81b8152506040518060200160405280600081525084848280620000aa81620003a660201b60201c565b506005805460ff19169055620000cb6000620000c5620003bf565b620003db565b620000e96000805160206200664b833981519152620000c5620003bf565b620001076000805160206200662b833981519152620000c5620003bf565b50600160085584516200012290600f90602088019062000bc7565b5083516200013890601090602087019062000bc7565b50600b80546001600160a01b0319169055600f8054620001e991906200015e9062000cc2565b80601f01602080910402602001604051908101604052809291908181526020018280546200018c9062000cc2565b8015620001dd5780601f10620001b157610100808354040283529160200191620001dd565b820191906000526020600020905b815481529060010190602001808311620001bf57829003601f168201915b5050620003e792505050565b600980546001600160a01b0319166001600160a01b038416908117909155620002159060009062000453565b600a80546001600160a01b0319166001600160a01b03831690811790915562000260907f97667070c54ef182b0f5858b034beac1b6f3089aa2d3188bb1e8929f4fa9b9299062000453565b600a5462000299907f828634d95e775031b9ff576b159a8509d3053581a8c9c4d7d86899e0afcd882f906001600160a01b031662000453565b600a54620002c1906000805160206200664b833981519152906001600160a01b031662000453565b600a54620002e9906000805160206200662b833981519152906001600160a01b031662000453565b620002f3620003bf565b6009546001600160a01b039081169116146200035b576200032d6000805160206200664b83398151915262000327620003bf565b6200048b565b6200034b6000805160206200662b83398151915262000327620003bf565b6200035b600062000327620003bf565b50505050506200039e6040518060400160405280601081526020016f11195c1b1bde4813d89a9958dd13919560821b815250620004b860201b62002e991760201c565b505062000ea9565b8051620003bb90600490602084019062000bc7565b5050565b6000620003d66200050660201b62002edc1760201c565b905090565b620003bb828262000565565b600554610100900460ff1615620004365760405162461bcd60e51b815260206004820152600e60248201526d185b1c9958591e481a5b9a5d195960921b60448201526064015b60405180910390fd5b6200044181620005a3565b506005805461ff001916610100179055565b6000828152602081905260409020600101546200047a8162000474620003bf565b62000645565b62000486838362000565565b505050565b600082815260208190526040902060010154620004ac8162000474620003bf565b620004868383620006e0565b6200050381604051602401620004cf919062000d32565b60408051601f198184030181529190526020810180516001600160e01b0390811663104c13eb60e21b179091526200071e16565b50565b6000333014156200055f57600080368080601f0160208091040260200160405190810160405280939291908181526020018383808284376000920191909152505050503601516001600160a01b03169150620005629050565b50335b90565b6200057c82826200073f60201b62002f391760201c565b60008281526001602090815260409091206200048691839062002fbe620007e1821b17901c565b6040518060800160405280604f8152602001620065dc604f9139805160209182012082519282019290922060408051808201825260018152603160f81b90840152805180840194909452838101919091527fc89efdaa54c0f20c7adf612882df0950f5a951637e0307cdcb4c672f298b8bc660608401523060808401524660a0808501919091528151808503909101815260c090930190528151910120600655565b6000828152602081815260408083206001600160a01b038516845290915290205460ff16620003bb576200068f816001600160a01b031660146200080160201b62002fd31760201c565b620006a583602062002fd362000801821b17811c565b604051602001620006b892919062000d67565b60408051601f198184030181529082905262461bcd60e51b82526200042d9160040162000d32565b620006f78282620009ba60201b6200316e1760201c565b600082815260016020908152604090912062000486918390620031f162000a5a821b17901c565b80516a636f6e736f6c652e6c6f67602083016000808483855afa5050505050565b6000828152602081815260408083206001600160a01b038516845290915290205460ff16620003bb576000828152602081815260408083206001600160a01b03851684529091529020805460ff191660011790556200079d620003bf565b6001600160a01b0316816001600160a01b0316837f2f8788117e7eff1d82e926ec794901d17c78024a50270940304540a733656f0d60405160405180910390a45050565b6000620007f8836001600160a01b03841662000a71565b90505b92915050565b606060006200081283600262000df6565b6200081f90600262000e18565b6001600160401b0381111562000839576200083962000e33565b6040519080825280601f01601f19166020018201604052801562000864576020820181803683370190505b509050600360fc1b8160008151811062000882576200088262000e49565b60200101906001600160f81b031916908160001a905350600f60fb1b81600181518110620008b457620008b462000e49565b60200101906001600160f81b031916908160001a9053506000620008da84600262000df6565b620008e790600162000e18565b90505b600181111562000969576f181899199a1a9b1b9c1cb0b131b232b360811b85600f16601081106200091f576200091f62000e49565b1a60f81b82828151811062000938576200093862000e49565b60200101906001600160f81b031916908160001a90535060049490941c93620009618162000e5f565b9050620008ea565b508315620007f85760405162461bcd60e51b815260206004820181905260248201527f537472696e67733a20686578206c656e67746820696e73756666696369656e7460448201526064016200042d565b6000828152602081815260408083206001600160a01b038516845290915290205460ff1615620003bb576000828152602081815260408083206001600160a01b03851684529091529020805460ff1916905562000a16620003bf565b6001600160a01b0316816001600160a01b0316837ff6391f5c32d9c69d2a47ea670b442974b53935d1edc7fd64eb21e047a839171b60405160405180910390a45050565b6000620007f8836001600160a01b03841662000ac3565b600081815260018301602052604081205462000aba57508154600181810184556000848152602080822090930184905584548482528286019093526040902091909155620007fb565b506000620007fb565b6000818152600183016020526040812054801562000bbc57600062000aea60018362000e79565b855490915060009062000b009060019062000e79565b905081811462000b6c57600086600001828154811062000b245762000b2462000e49565b906000526020600020015490508087600001848154811062000b4a5762000b4a62000e49565b6000918252602080832090910192909255918252600188019052604090208390555b855486908062000b805762000b8062000e93565b600190038181906000526020600020016000905590558560010160008681526020019081526020016000206000905560019350505050620007fb565b6000915050620007fb565b82805462000bd59062000cc2565b90600052602060002090601f01602090048101928262000bf9576000855562000c44565b82601f1062000c1457805160ff191683800117855562000c44565b8280016001018555821562000c44579182015b8281111562000c4457825182559160200191906001019062000c27565b5062000c5292915062000c56565b5090565b5b8082111562000c52576000815560010162000c57565b80516001600160a01b038116811462000c8557600080fd5b919050565b6000806040838503121562000c9e57600080fd5b62000ca98362000c6d565b915062000cb96020840162000c6d565b90509250929050565b600181811c9082168062000cd757607f821691505b6020821081141562000cf957634e487b7160e01b600052602260045260246000fd5b50919050565b60005b8381101562000d1c57818101518382015260200162000d02565b8381111562000d2c576000848401525b50505050565b602081526000825180602084015262000d5381604085016020870162000cff565b601f01601f19169190910160400192915050565b7f416363657373436f6e74726f6c3a206163636f756e742000000000000000000081526000835162000da181601785016020880162000cff565b7001034b99036b4b9b9b4b733903937b6329607d1b601791840191820152835162000dd481602884016020880162000cff565b01602801949350505050565b634e487b7160e01b600052601160045260246000fd5b600081600019048311821515161562000e135762000e1362000de0565b500290565b6000821982111562000e2e5762000e2e62000de0565b500190565b634e487b7160e01b600052604160045260246000fd5b634e487b7160e01b600052603260045260246000fd5b60008162000e715762000e7162000de0565b506000190190565b60008282101562000e8e5762000e8e62000de0565b500390565b634e487b7160e01b600052603160045260246000fd5b6157238062000eb96000396000f3fe6080604052600436106103aa5760003560e01c8063731133e9116101e7578063bd85b0391161010d578063d547741f116100a0578063f242432a1161006f578063f242432a14610c04578063f5298aca14610c24578063f5b541a614610c44578063f851a44014610c6657600080fd5b8063d547741f14610b82578063e031742114610ba2578063e63ab1e914610bc2578063e985e9c514610be457600080fd5b8063d26ea6c0116100dc578063d26ea6c014610aea578063d2a6b51a14610b0a578063d48e638a14610b2a578063d539139314610b6057600080fd5b8063bd85b03914610a47578063ca15c87314610a74578063cd53d08e14610a94578063cd7c032614610aca57600080fd5b806395d89b4111610185578063a22cb46511610154578063a22cb465146109c7578063b085451c146109e7578063b48ab8b614610a14578063b6ccd0e014610a3457600080fd5b806395d89b41146109505780639713c8071461096557806399213a2814610985578063a217fddf146109b257600080fd5b80638aeda25a116101c15780638aeda25a146108ce5780638f283970146108f05780639010d07c1461091057806391d148541461093057600080fd5b8063731133e91461081f5780637f77f5741461083f5780638456cb59146108b957600080fd5b80632693ebf2116102d75780633f4ba83a1161026a578063570ca73511610239578063570ca735146107825780635c975abb146107ba5780636b20c454146107d25780636cb07567146107f257600080fd5b80633f4ba83a146107005780634e1273f4146107155780634f558e791461074257806351cff8d91461076257600080fd5b80632f2ff15d116102a65780632f2ff15d1461068d5780633408e470146106ad57806336568abe146106c05780633adf80b4146106e057600080fd5b80632693ebf2146105cb5780632a55205a146105f85780632d0335ab146106375780632eb2c2d61461066d57600080fd5b80630c53c51c1161034f5780631df284e91161031e5780631df284e9146105465780631f7fdffa1461056657806320379ee514610586578063248a9ca31461059b57600080fd5b80630c53c51c146104ac5780630e89341c146104cc5780630f7e5970146104ec578063177ed0f31461051957600080fd5b806301ffc9a71161038b57806301ffc9a71461041857806302fe53051461044857806306394c9b1461046a57806306fdde031461048a57600080fd5b80620ed58f146103af5780621f17bb146103d8578062fdd58e146103f8575b600080fd5b3480156103bb57600080fd5b506103c560155481565b6040519081526020015b60405180910390f35b3480156103e457600080fd5b506103c56103f3366004614638565b610c86565b34801561040457600080fd5b506103c56104133660046146a2565b610d29565b34801561042457600080fd5b506104386104333660046146e4565b610dc5565b60405190151581526020016103cf565b34801561045457600080fd5b50610468610463366004614701565b610dea565b005b34801561047657600080fd5b5061046861048536600461473d565b610ec3565b34801561049657600080fd5b5061049f611130565b6040516103cf91906147b2565b3480156104b857600080fd5b5061049f6104c73660046147c5565b6111be565b3480156104d857600080fd5b5061049f6104e7366004614842565b611391565b3480156104f857600080fd5b5061049f604051806040016040528060018152602001603160f81b81525081565b34801561052557600080fd5b506103c5610534366004614842565b60009081526011602052604090205490565b34801561055257600080fd5b506103c561056136600461485b565b61155f565b34801561057257600080fd5b5061046861058136600461498b565b611809565b34801561059257600080fd5b506006546103c5565b3480156105a757600080fd5b506103c56105b6366004614842565b60009081526020819052604090206001015490565b3480156105d757600080fd5b506103c56105e6366004614842565b600d6020526000908152604090205481565b34801561060457600080fd5b50610618610613366004614a25565b6118a7565b604080516001600160a01b0390931683526020830191909152016103cf565b34801561064357600080fd5b506103c561065236600461473d565b6001600160a01b031660009081526007602052604090205490565b34801561067957600080fd5b50610468610688366004614a47565b611969565b34801561069957600080fd5b506104686106a8366004614af4565b611a12565b3480156106b957600080fd5b50466103c5565b3480156106cc57600080fd5b506104686106db366004614af4565b611a44565b3480156106ec57600080fd5b506104686106fb366004614b24565b611ad2565b34801561070c57600080fd5b50610468611bce565b34801561072157600080fd5b50610735610730366004614b60565b611c64565b6040516103cf9190614c5d565b34801561074e57600080fd5b5061043861075d366004614842565b611d8d565b34801561076e57600080fd5b5061046861077d36600461473d565b611dac565b34801561078e57600080fd5b50600a546107a2906001600160a01b031681565b6040516001600160a01b0390911681526020016103cf565b3480156107c657600080fd5b5060055460ff16610438565b3480156107de57600080fd5b506104686107ed366004614c70565b611f49565b3480156107fe57600080fd5b506103c561080d366004614842565b60116020526000908152604090205481565b34801561082b57600080fd5b5061046861083a366004614ce5565b611f9e565b34801561084b57600080fd5b5061088e61085a366004614842565b6013602052600090815260409020546001600160a01b03811690600160a01b810462ffffff1690600160b81b900460ff1683565b604080516001600160a01b03909416845262ffffff90921660208401521515908201526060016103cf565b3480156108c557600080fd5b506104686121ac565b3480156108da57600080fd5b506103c560008051602061564783398151915281565b3480156108fc57600080fd5b5061046861090b36600461473d565b612240565b34801561091c57600080fd5b506107a261092b366004614a25565b6123d4565b34801561093c57600080fd5b5061043861094b366004614af4565b6123ec565b34801561095c57600080fd5b5061049f612415565b34801561097157600080fd5b50610468610980366004614d3b565b612422565b34801561099157600080fd5b506103c56109a0366004614842565b60126020526000908152604090205481565b3480156109be57600080fd5b506103c5600081565b3480156109d357600080fd5b506104686109e2366004614d73565b6125bc565b3480156109f357600080fd5b506103c5610a02366004614842565b60009081526012602052604090205490565b348015610a2057600080fd5b50610468610a2f36600461498b565b6125ce565b610468610a42366004614ce5565b6127ce565b348015610a5357600080fd5b506103c5610a62366004614842565b6000908152600d602052604090205490565b348015610a8057600080fd5b506103c5610a8f366004614842565b612999565b348015610aa057600080fd5b506107a2610aaf366004614842565b600c602052600090815260409020546001600160a01b031681565b348015610ad657600080fd5b50600b546107a2906001600160a01b031681565b348015610af657600080fd5b50610468610b0536600461473d565b6129b0565b348015610b1657600080fd5b50610468610b25366004614da6565b612ad8565b348015610b3657600080fd5b506107a2610b45366004614842565b6000908152600c60205260409020546001600160a01b031690565b348015610b6c57600080fd5b506103c56000805160206156ce83398151915281565b348015610b8e57600080fd5b50610468610b9d366004614af4565b612c2a565b348015610bae57600080fd5b50610468610bbd366004614a25565b612c52565b348015610bce57600080fd5b506103c56000805160206156ae83398151915281565b348015610bf057600080fd5b50610438610bff366004614deb565b612d1d565b348015610c1057600080fd5b50610468610c1f366004614e19565b612ded565b348015610c3057600080fd5b50610468610c3f366004614e81565b612e44565b348015610c5057600080fd5b506103c560008051602061568e83398151915281565b348015610c7257600080fd5b506009546107a2906001600160a01b031681565b6000610c96601480546001019055565b601454601581905550610cca86601554878760405180604001604052806002815260200161060f60f31b815250888861155f565b50610cef60405180606001604052806027815260200161566760279139308888613206565b610d1c6040518060400160405280600981526020016803a37b5b2b734b21d160bd1b81525060155461324f565b5060155495945050505050565b60006001600160a01b038316610d9a5760405162461bcd60e51b815260206004820152602b60248201527f455243313135353a2062616c616e636520717565727920666f7220746865207a60448201526a65726f206164647265737360a81b60648201526084015b60405180910390fd5b5060008181526002602090815260408083206001600160a01b03861684529091529020545b92915050565b60006001600160e01b03198216636a4731c560e11b1480610dbf5750610dbf82613294565b600a546001600160a01b0316610dfe61329f565b6001600160a01b031614610e245760405162461bcd60e51b8152600401610d9190614eb6565b610e3e60008051602061568e83398151915261094b61329f565b610e5a5760405162461bcd60e51b8152600401610d9190614eb6565b610e7460008051602061564783398151915261094b61329f565b610eb75760405162461bcd60e51b815260206004820152601460248201527313d3931657d0d491505513d497d0531313d5d15160621b6044820152606401610d91565b610ec0816132ae565b50565b6009546001600160a01b0316610ed761329f565b6001600160a01b031614610efd5760405162461bcd60e51b8152600401610d9190614f07565b610f0a600061094b61329f565b610f265760405162461bcd60e51b8152600401610d9190614f07565b6009546001600160a01b0316610f3a61329f565b6001600160a01b031614610f865760405162461bcd60e51b815260206004820152601360248201527229b2b73232b91034b9903737ba1030b236b4b760691b6044820152606401610d91565b610f93600061094b61329f565b610fdb5760405162461bcd60e51b815260206004820152601960248201527853656e64657220686173206e6f742061646d696e20726f6c6560381b6044820152606401610d91565b600a80546001600160a01b038381166001600160a01b03198316811790935516906110159060008051602061568e83398151915290611a12565b600a5461103a90600080516020615647833981519152906001600160a01b0316611a12565b600a5461105f906000805160206156ce833981519152906001600160a01b0316611a12565b600a54611084906000805160206156ae833981519152906001600160a01b0316611a12565b61109c60008051602061568e83398151915282612c2a565b6110b460008051602061564783398151915282612c2a565b6110cc6000805160206156ce83398151915282612c2a565b6110e46000805160206156ae83398151915282612c2a565b600a54604080516001600160a01b03808516825290921660208301527fd58299b712891143e76310d5e664c4203c940a67db37cf856bdaa3c5c76a802c91015b60405180910390a15050565b600f805461113d90614f55565b80601f016020809104026020016040519081016040528092919081815260200182805461116990614f55565b80156111b65780601f1061118b576101008083540402835291602001916111b6565b820191906000526020600020905b81548152906001019060200180831161119957829003601f168201915b505050505081565b60408051606081810183526001600160a01b038816600081815260076020908152908590205484528301529181018690526111fc87828787876132c1565b6112525760405162461bcd60e51b815260206004820152602160248201527f5369676e657220616e64207369676e617475726520646f206e6f74206d6174636044820152600d60fb1b6064820152608401610d91565b6001600160a01b038716600090815260076020526040902054611276906001614fa0565b6001600160a01b0388166000908152600760205260409081902091909155517f5845892132946850460bff5a0083f71031bc5bf9aadcd40f1de79423eac9b10b906112c690899033908a90614fb8565b60405180910390a1600080306001600160a01b0316888a6040516020016112ee929190614fed565b60408051601f198184030181529082905261130891615024565b6000604051808303816000865af19150503d8060008114611345576040519150601f19603f3d011682016040523d82523d6000602084013e61134a565b606091505b5091509150816113855760405162461bcd60e51b8152600401610d919060208082526004908201526319985a5b60e21b604082015260600190565b98975050505050505050565b6000818152600c60205260409020546060906001600160a01b03166114075760405162461bcd60e51b815260206004820152602660248201527f455243313135355472616461626c65237572693a204e4f4e4558495354454e546044820152652faa27a5a2a760d11b6064820152608401610d91565b6000828152600e60205260408120805461142090614f55565b80601f016020809104026020016040519081016040528092919081815260200182805461144c90614f55565b80156114995780601f1061146e57610100808354040283529160200191611499565b820191906000526020600020905b81548152906001019060200180831161147c57829003601f168201915b50505050509050600081511115611549576000838152600e6020526040902080546114c390614f55565b80601f01602080910402602001604051908101604052809291908181526020018280546114ef90614f55565b801561153c5780601f106115115761010080835404028352916020019161153c565b820191906000526020600020905b81548152906001019060200180831161151f57829003601f168201915b5050505050915050919050565b6115528361338f565b9392505050565b50919050565b600a546000906001600160a01b031661157661329f565b6001600160a01b03161461159c5760405162461bcd60e51b8152600401610d9190614eb6565b6115b660008051602061568e83398151915261094b61329f565b6115d25760405162461bcd60e51b8152600401610d9190614eb6565b6115ec60008051602061564783398151915261094b61329f565b6116385760405162461bcd60e51b815260206004820152601b60248201527f53656e64657220686173206e6f742063726561746f7220726f6c6500000000006044820152606401610d91565b6000878152600c60205260409020546001600160a01b03161561169d5760405162461bcd60e51b815260206004820152601860248201527f746f6b656e205f696420616c72656164792065786973747300000000000000006044820152606401610d91565b81156116e757818611156116e75760405162461bcd60e51b81526020600482015260116024820152700d2dcd2e840e6eae0e0d8f2407c40dac2f607b1b6044820152606401610d91565b6116ef61329f565b6000888152600c6020526040902080546001600160a01b0319166001600160a01b039290921691909117905584511561177b576000878152600e602090815260409091208651611741928801906144d5565b50867f6bb7ff708619ba0610cba295a58592e0451dee2622938c8755667688daf3529b8660405161177291906147b2565b60405180910390a25b61178788888887613423565b6000878152600d6020908152604080832089905560118252808320869055601290915290819020839055600a5490517fdfd613b842aef92c704876cb5eb94df518752614cc459d562f47af89b9be9126916117f5918b918b918b918b916001600160a01b0390911690615040565b60405180910390a150949695505050505050565b6118236000805160206156ce83398151915261094b61329f565b6118955760405162461bcd60e51b815260206004820152603860248201527f455243313135355072657365744d696e7465725061757365723a206d7573742060448201527f68617665206d696e74657220726f6c6520746f206d696e7400000000000000006064820152608401610d91565b6118a184848484613506565b50505050565b6000828152601360209081526040808320815160608101835290546001600160a01b0381168252600160a01b810462ffffff1693820193909352600160b81b90920460ff161580159183019190915282919061192b57805160208201519093506127109061191a9062ffffff1686615083565b61192491906150a2565b9150611961565b6000858152600c60205260409020546001600160a01b03169250612710611954856101f4615083565b61195e91906150a2565b91505b509250929050565b61197161329f565b6001600160a01b0316856001600160a01b03161480611997575061199785610bff61329f565b6119fe5760405162461bcd60e51b815260206004820152603260248201527f455243313135353a207472616e736665722063616c6c6572206973206e6f74206044820152711bdddb995c881b9bdc88185c1c1c9bdd995960721b6064820152608401610d91565b611a0b858585858561366c565b5050505050565b600082815260208190526040902060010154611a3581611a3061329f565b613824565b611a3f8383613888565b505050565b611a4c61329f565b6001600160a01b0316816001600160a01b031614611ac45760405162461bcd60e51b815260206004820152602f60248201527f416363657373436f6e74726f6c3a2063616e206f6e6c792072656e6f756e636560448201526e103937b632b9903337b91039b2b63360891b6064820152608401610d91565b611ace82826138aa565b5050565b81611adb61329f565b6000828152600c60205260409020546001600160a01b03908116911614611b145760405162461bcd60e51b8152600401610d91906150c4565b611b2e60008051602061564783398151915261094b61329f565b611b715760405162461bcd60e51b815260206004820152601460248201527313d3931657d0d491505513d497d0531313d5d15160621b6044820152606401610d91565b6000838152600e602090815260409091208351611b90928501906144d5565b50827f6bb7ff708619ba0610cba295a58592e0451dee2622938c8755667688daf3529b83604051611bc191906147b2565b60405180910390a2505050565b611be86000805160206156ae83398151915261094b61329f565b611c5a5760405162461bcd60e51b815260206004820152603b60248201527f455243313135355072657365744d696e7465725061757365723a206d7573742060448201527f686176652070617573657220726f6c6520746f20756e706175736500000000006064820152608401610d91565b611c626138cc565b565b60608151835114611cc95760405162461bcd60e51b815260206004820152602960248201527f455243313135353a206163636f756e747320616e6420696473206c656e677468604482015268040dad2e6dac2e8c6d60bb1b6064820152608401610d91565b600083516001600160401b03811115611ce457611ce4614583565b604051908082528060200260200182016040528015611d0d578160200160208202803683370190505b50905060005b8451811015611d8557611d58858281518110611d3157611d31615115565b6020026020010151858381518110611d4b57611d4b615115565b6020026020010151610d29565b828281518110611d6a57611d6a615115565b6020908102919091010152611d7e8161512b565b9050611d13565b509392505050565b6000818152600c60205260408120546001600160a01b03161515610dbf565b60026008541415611dff5760405162461bcd60e51b815260206004820152601f60248201527f5265656e7472616e637947756172643a207265656e7472616e742063616c6c006044820152606401610d91565b60026008556009546001600160a01b0316611e1861329f565b6001600160a01b031614611e3e5760405162461bcd60e51b8152600401610d9190614f07565b611e4b600061094b61329f565b611e675760405162461bcd60e51b8152600401610d9190614f07565b60004711611eac5760405162461bcd60e51b81526020600482015260126024820152716e6f7420656e6f7567682062616c616e636560701b6044820152606401610d91565b6000816001600160a01b03164760405160006040518083038185875af1925050503d8060008114611ef9576040519150601f19603f3d011682016040523d82523d6000602084013e611efe565b606091505b5050905080611f405760405162461bcd60e51b815260206004820152600e60248201526d3bb4ba34323930bb9032b93937b960911b6044820152606401610d91565b50506001600855565b611f5161329f565b6001600160a01b0316836001600160a01b03161480611f775750611f7783610bff61329f565b611f935760405162461bcd60e51b8152600401610d9190615146565b611a3f838383613965565b82611fa761329f565b6000828152600c60205260409020546001600160a01b03908116911614611fe05760405162461bcd60e51b8152600401610d91906150c4565b6000848152600c60205260409020546001600160a01b03166120445760405162461bcd60e51b815260206004820152601c60248201527f746f6b656e205f6964206e6f7420616c726561647920657869737473000000006044820152606401610d91565b61205e6000805160206156ce83398151915261094b61329f565b6120aa5760405162461bcd60e51b815260206004820152601a60248201527f53656e64657220686173206e6f74206d696e74657220726f6c650000000000006044820152606401610d91565b6000848152601260205260409020541561212457600084815260126020908152604080832054600d909252909120546120e39085613afd565b11156121245760405162461bcd60e51b815260206004820152601060248201526f5265616368206d617820737570706c7960801b6044820152606401610d91565b61213085858585613423565b6000848152600d60205260409020546121499084613afd565b6000858152600d60209081526040918290209290925580516001600160a01b038816815291820186905281018490527f8069ef4945469d029cc32e222031bccdc99b2eaaf4ee374cd268012f7ddee9079060600160405180910390a15050505050565b6121c66000805160206156ae83398151915261094b61329f565b6122385760405162461bcd60e51b815260206004820152603960248201527f455243313135355072657365744d696e7465725061757365723a206d7573742060448201527f686176652070617573657220726f6c6520746f207061757365000000000000006064820152608401610d91565b611c62613b09565b6009546001600160a01b031661225461329f565b6001600160a01b03161461227a5760405162461bcd60e51b8152600401610d9190614f07565b612287600061094b61329f565b6122a35760405162461bcd60e51b8152600401610d9190614f07565b6009546001600160a01b03166122b761329f565b6001600160a01b0316146123035760405162461bcd60e51b815260206004820152601360248201527229b2b73232b91034b9903737ba1030b236b4b760691b6044820152606401610d91565b612310600061094b61329f565b6123585760405162461bcd60e51b815260206004820152601960248201527853656e64657220686173206e6f742061646d696e20726f6c6560381b6044820152606401610d91565b600980546001600160a01b038381166001600160a01b031983168117909355169061238590600090611a12565b612390600082612c2a565b600954604080516001600160a01b03808516825290921660208301527f7e644d79422f17c01e4894b5f4f588d331ebfa28653d42ae832dc59e38c9798f9101611124565b60008281526001602052604081206115529083613b85565b6000918252602082815260408084206001600160a01b0393909316845291905290205460ff1690565b6010805461113d90614f55565b600a546001600160a01b031661243661329f565b6001600160a01b03161461245c5760405162461bcd60e51b8152600401610d9190614eb6565b61247660008051602061568e83398151915261094b61329f565b6124925760405162461bcd60e51b8152600401610d9190614eb6565b6124ac60008051602061564783398151915261094b61329f565b6124f85760405162461bcd60e51b815260206004820152601b60248201527f53656e64657220686173206e6f742063726561746f7220726f6c6500000000006044820152606401610d91565b6127108111156125435760405162461bcd60e51b81526020600482015260166024820152750a8ded6cadca4def2c2d8e8f27440a8dede40d0d2ced60531b6044820152606401610d91565b604080516060810182526001600160a01b03938416815262ffffff928316602080830191825260018385019081526000978852601390915292909520905181549551925194166001600160b81b031990951694909417600160a01b91909216021760ff60b81b1916600160b81b91151591909102179055565b611ace6125c761329f565b8383613b91565b600a546001600160a01b03166125e261329f565b6001600160a01b0316146126085760405162461bcd60e51b8152600401610d9190614eb6565b61262260008051602061568e83398151915261094b61329f565b61263e5760405162461bcd60e51b8152600401610d9190614eb6565b6126586000805160206156ce83398151915261094b61329f565b6126a45760405162461bcd60e51b815260206004820152601a60248201527f53656e64657220686173206e6f74206d696e74657220726f6c650000000000006044820152606401610d91565b60005b83518110156127c15760008482815181106126c4576126c4615115565b602002602001015190506126d661329f565b6000828152600c60205260409020546001600160a01b039081169116146127575760405162461bcd60e51b815260206004820152602f60248201527f455243313135355472616461626c652362617463684d696e743a204f4e4c595f60448201526e10d491505513d497d0531313d5d151608a1b6064820152608401610d91565b600084838151811061276b5761276b615115565b6020026020010151905061279b81600d600085815260200190815260200160002054613afd90919063ffffffff16565b6000928352600d60205260409092209190915550806127b98161512b565b9150506126a7565b506118a184848484613506565b6000838152600c60205260409020546001600160a01b03166128325760405162461bcd60e51b815260206004820152601c60248201527f746f6b656e205f6964206e6f7420616c726561647920657869737473000000006044820152606401610d91565b60008381526011602052604090205415612898576000838152601160205260409020543410156128985760405162461bcd60e51b81526020600482015260116024820152706d73672e76616c7565203c20707269636560781b6044820152606401610d91565b6000838152601260205260409020541561291257600083815260126020908152604080832054600d909252909120546128d19084613afd565b11156129125760405162461bcd60e51b815260206004820152601060248201526f5265616368206d617820737570706c7960801b6044820152606401610d91565b61291e84848484613423565b6000838152600d60205260409020546129379083613afd565b6000848152600d60209081526040918290209290925580516001600160a01b038716815291820185905281018390527f8069ef4945469d029cc32e222031bccdc99b2eaaf4ee374cd268012f7ddee9079060600160405180910390a150505050565b6000818152600160205260408120610dbf90613c72565b600a546001600160a01b03166129c461329f565b6001600160a01b0316146129ea5760405162461bcd60e51b8152600401610d9190614eb6565b612a0460008051602061568e83398151915261094b61329f565b612a205760405162461bcd60e51b8152600401610d9190614eb6565b600b546001600160a01b0382811691161415612a7e5760405162461bcd60e51b815260206004820152601c60248201527f6e65772070726f7879206164647265737320697320696e76616c6964000000006044820152606401610d91565b600b80546001600160a01b038381166001600160a01b031983168117909355604080519190921680825260208201939093527ffc15895015d07bcb2ae0459d79c7bfb40d36feedb31f55cc34e3ef404c86c5779101611124565b600a546001600160a01b0316612aec61329f565b6001600160a01b031614612b125760405162461bcd60e51b8152600401610d9190614eb6565b612b2c60008051602061568e83398151915261094b61329f565b612b485760405162461bcd60e51b8152600401610d9190614eb6565b6001600160a01b038216612bb35760405162461bcd60e51b815260206004820152602c60248201527f455243313135355472616461626c652373657443726561746f723a20494e564160448201526b2624a22fa0a2222922a9a99760a11b6064820152608401610d91565b612bcb60008051602061564783398151915283613888565b612be36000805160206156ce83398151915283613888565b60005b8151811015611a3f576000828281518110612c0357612c03615115565b60200260200101519050612c178482613c7c565b5080612c228161512b565b915050612be6565b600082815260208190526040902060010154612c4881611a3061329f565b611a3f83836138aa565b600a546001600160a01b0316612c6661329f565b6001600160a01b031614612c8c5760405162461bcd60e51b8152600401610d9190614eb6565b612ca660008051602061568e83398151915261094b61329f565b612cc25760405162461bcd60e51b8152600401610d9190614eb6565b60008281526011602090815260409182902080549084905582518581529182018190529181018390527f2bce37c591c5b0d254c3056688b080a088f160fff82b6e79f456c8a20d5570f69060600160405180910390a1505050565b600b546000906001600160a01b031615612dbf57600b5460405163c455279160e01b81526001600160a01b03858116600483015291821691841690829063c455279190602401602060405180830381865afa158015612d80573d6000803e3d6000fd5b505050506040513d601f19601f82011682018060405250810190612da4919061518f565b6001600160a01b03161415612dbd576001915050610dbf565b505b6001600160a01b0380841660009081526003602090815260408083209386168352929052205460ff16611552565b612df561329f565b6001600160a01b0316856001600160a01b03161480612e1b5750612e1b85610bff61329f565b612e375760405162461bcd60e51b8152600401610d9190615146565b611a0b8585858585613ced565b612e4c61329f565b6001600160a01b0316836001600160a01b03161480612e725750612e7283610bff61329f565b612e8e5760405162461bcd60e51b8152600401610d9190615146565b611a3f838383613e19565b610ec081604051602401612ead91906147b2565b60408051601f198184030181529190526020810180516001600160e01b031663104c13eb60e21b179052613f29565b600033301415612f3357600080368080601f0160208091040260200160405190810160405280939291908181526020018383808284376000920191909152505050503601516001600160a01b03169150612f369050565b50335b90565b612f4382826123ec565b611ace576000828152602081815260408083206001600160a01b03851684529091529020805460ff19166001179055612f7a61329f565b6001600160a01b0316816001600160a01b0316837f2f8788117e7eff1d82e926ec794901d17c78024a50270940304540a733656f0d60405160405180910390a45050565b6000611552836001600160a01b038416613f4a565b60606000612fe2836002615083565b612fed906002614fa0565b6001600160401b0381111561300457613004614583565b6040519080825280601f01601f19166020018201604052801561302e576020820181803683370190505b509050600360fc1b8160008151811061304957613049615115565b60200101906001600160f81b031916908160001a905350600f60fb1b8160018151811061307857613078615115565b60200101906001600160f81b031916908160001a905350600061309c846002615083565b6130a7906001614fa0565b90505b600181111561311f576f181899199a1a9b1b9c1cb0b131b232b360811b85600f16601081106130db576130db615115565b1a60f81b8282815181106130f1576130f1615115565b60200101906001600160f81b031916908160001a90535060049490941c93613118816151ac565b90506130aa565b5083156115525760405162461bcd60e51b815260206004820181905260248201527f537472696e67733a20686578206c656e67746820696e73756666696369656e746044820152606401610d91565b61317882826123ec565b15611ace576000828152602081815260408083206001600160a01b03851684529091529020805460ff191690556131ad61329f565b6001600160a01b0316816001600160a01b0316837ff6391f5c32d9c69d2a47ea670b442974b53935d1edc7fd64eb21e047a839171b60405160405180910390a45050565b6000611552836001600160a01b038416613f99565b6118a18484848460405160240161322094939291906151c3565b60408051601f198184030181529190526020810180516001600160e01b0316636eb7943d60e01b179052613f29565b611ace82826040516024016132659291906151f9565b60408051601f198184030181529190526020810180516001600160e01b03166309710a9d60e41b179052613f29565b6000610dbf8261408c565b60006132a9612edc565b905090565b8051611ace9060049060208401906144d5565b60006001600160a01b0386166133055760405162461bcd60e51b815260206004820152600960248201526824a72fa9a4a3a722a960b91b6044820152606401610d91565b6001613318613313876140cc565b614149565b6040805160008152602081018083529290925260ff851690820152606081018690526080810185905260a0016020604051602081039080840390855afa158015613366573d6000803e3d6000fd5b505050602060405103516001600160a01b0316866001600160a01b031614905095945050505050565b60606004805461339e90614f55565b80601f01602080910402602001604051908101604052809291908181526020018280546133ca90614f55565b80156134175780601f106133ec57610100808354040283529160200191613417565b820191906000526020600020905b8154815290600101906020018083116133fa57829003601f168201915b50505050509050919050565b6001600160a01b0384166134495760405162461bcd60e51b8152600401610d919061521b565b600061345361329f565b90506134748160008761346588614179565b61346e88614179565b876141c4565b60008481526002602090815260408083206001600160a01b0389168452909152812080548592906134a6908490614fa0565b909155505060408051858152602081018590526001600160a01b0380881692600092918516917fc3d58168c5ae7397731d063d5bbf3d657854427343f4c083240f7aacaa2d0f62910160405180910390a4611a0b816000878787876141d2565b6001600160a01b03841661352c5760405162461bcd60e51b8152600401610d919061521b565b815183511461354d5760405162461bcd60e51b8152600401610d919061525c565b600061355761329f565b9050613568816000878787876141c4565b60005b84518110156136045783818151811061358657613586615115565b6020026020010151600260008784815181106135a4576135a4615115565b602002602001015181526020019081526020016000206000886001600160a01b03166001600160a01b0316815260200190815260200160002060008282546135ec9190614fa0565b909155508190506135fc8161512b565b91505061356b565b50846001600160a01b031660006001600160a01b0316826001600160a01b03167f4a39dc06d4c0dbc64b70af90fd698a233a518aa5d07e595d983b8c0526c8f7fb87876040516136559291906152a4565b60405180910390a4611a0b8160008787878761432e565b815183511461368d5760405162461bcd60e51b8152600401610d919061525c565b6001600160a01b0384166136b35760405162461bcd60e51b8152600401610d91906152c9565b60006136bd61329f565b90506136cd8187878787876141c4565b60005b84518110156137b65760008582815181106136ed576136ed615115565b60200260200101519050600085838151811061370b5761370b615115565b60209081029190910181015160008481526002835260408082206001600160a01b038e16835290935291909120549091508181101561375c5760405162461bcd60e51b8152600401610d919061530e565b60008381526002602090815260408083206001600160a01b038e8116855292528083208585039055908b1682528120805484929061379b908490614fa0565b92505081905550505050806137af9061512b565b90506136d0565b50846001600160a01b0316866001600160a01b0316826001600160a01b03167f4a39dc06d4c0dbc64b70af90fd698a233a518aa5d07e595d983b8c0526c8f7fb87876040516138069291906152a4565b60405180910390a461381c81878787878761432e565b505050505050565b61382e82826123ec565b611ace57613846816001600160a01b03166014612fd3565b613851836020612fd3565b604051602001613862929190615358565b60408051601f198184030181529082905262461bcd60e51b8252610d91916004016147b2565b6138928282612f39565b6000828152600160205260409020611a3f9082612fbe565b6138b4828261316e565b6000828152600160205260409020611a3f90826131f1565b60055460ff166139155760405162461bcd60e51b815260206004820152601460248201527314185d5cd8589b194e881b9bdd081c185d5cd95960621b6044820152606401610d91565b6005805460ff191690557f5db9ee0a495bf2e6ff9c91a7834c1ba4fdd244a5e8aa4e537bd38aeae4b073aa61394861329f565b6040516001600160a01b03909116815260200160405180910390a1565b6001600160a01b03831661398b5760405162461bcd60e51b8152600401610d91906153cd565b80518251146139ac5760405162461bcd60e51b8152600401610d919061525c565b60006139b661329f565b90506139d6818560008686604051806020016040528060008152506141c4565b60005b8351811015613a9e5760008482815181106139f6576139f6615115565b602002602001015190506000848381518110613a1457613a14615115565b60209081029190910181015160008481526002835260408082206001600160a01b038c168352909352919091205490915081811015613a655760405162461bcd60e51b8152600401610d9190615410565b60009283526002602090815260408085206001600160a01b038b1686529091529092209103905580613a968161512b565b9150506139d9565b5060006001600160a01b0316846001600160a01b0316826001600160a01b03167f4a39dc06d4c0dbc64b70af90fd698a233a518aa5d07e595d983b8c0526c8f7fb8686604051613aef9291906152a4565b60405180910390a450505050565b60006115528284614fa0565b60055460ff1615613b4f5760405162461bcd60e51b815260206004820152601060248201526f14185d5cd8589b194e881c185d5cd95960821b6044820152606401610d91565b6005805460ff191660011790557f62e78cea01bee320cd4e420270b5ea74000d11b0c9f74754ebdbfc544b05a25861394861329f565b600061155283836143e9565b816001600160a01b0316836001600160a01b03161415613c055760405162461bcd60e51b815260206004820152602960248201527f455243313135353a2073657474696e6720617070726f76616c20737461747573604482015268103337b91039b2b63360b91b6064820152608401610d91565b6001600160a01b03838116600081815260036020908152604080832094871680845294825291829020805460ff191686151590811790915591519182527f17307eab39ab6107e8899845ad3d59bd9653f200f220920489ca2b5937696c31910160405180910390a3505050565b6000610dbf825490565b80613c8561329f565b6000828152600c60205260409020546001600160a01b03908116911614613cbe5760405162461bcd60e51b8152600401610d91906150c4565b506000908152600c6020526040902080546001600160a01b0319166001600160a01b0392909216919091179055565b6001600160a01b038416613d135760405162461bcd60e51b8152600401610d91906152c9565b6000613d1d61329f565b9050613d2e81878761346588614179565b60008481526002602090815260408083206001600160a01b038a16845290915290205483811015613d715760405162461bcd60e51b8152600401610d919061530e565b60008581526002602090815260408083206001600160a01b038b8116855292528083208785039055908816825281208054869290613db0908490614fa0565b909155505060408051868152602081018690526001600160a01b03808916928a821692918616917fc3d58168c5ae7397731d063d5bbf3d657854427343f4c083240f7aacaa2d0f62910160405180910390a4613e108288888888886141d2565b50505050505050565b6001600160a01b038316613e3f5760405162461bcd60e51b8152600401610d91906153cd565b6000613e4961329f565b9050613e7981856000613e5b87614179565b613e6487614179565b604051806020016040528060008152506141c4565b60008381526002602090815260408083206001600160a01b038816845290915290205482811015613ebc5760405162461bcd60e51b8152600401610d9190615410565b60008481526002602090815260408083206001600160a01b03898116808652918452828520888703905582518981529384018890529092908616917fc3d58168c5ae7397731d063d5bbf3d657854427343f4c083240f7aacaa2d0f62910160405180910390a45050505050565b80516a636f6e736f6c652e6c6f67602083016000808483855afa5050505050565b6000818152600183016020526040812054613f9157508154600181810184556000848152602080822090930184905584548482528286019093526040902091909155610dbf565b506000610dbf565b60008181526001830160205260408120548015614082576000613fbd600183615454565b8554909150600090613fd190600190615454565b9050818114614036576000866000018281548110613ff157613ff1615115565b906000526020600020015490508087600001848154811061401457614014615115565b6000918252602080832090910192909255918252600188019052604090208390555b85548690806140475761404761546b565b600190038181906000526020600020016000905590558560010160008681526020019081526020016000206000905560019350505050610dbf565b6000915050610dbf565b60006001600160e01b03198216636cdb3d1360e11b14806140bd57506001600160e01b031982166303a24d0760e21b145b80610dbf5750610dbf82614413565b6000604051806060016040528060258152602001615622602591398051602091820120835184830151604080870151805190860120905161412c950193845260208401929092526001600160a01b03166040830152606082015260800190565b604051602081830303815290604052805190602001209050919050565b600061415460065490565b60405161190160f01b602082015260228101919091526042810183905260620161412c565b604080516001808252818301909252606091600091906020808301908036833701905050905082816000815181106141b3576141b3615115565b602090810291909101015292915050565b61381c868686868686614438565b6001600160a01b0384163b1561381c5760405163f23a6e6160e01b81526001600160a01b0385169063f23a6e61906142169089908990889088908890600401615481565b6020604051808303816000875af1925050508015614251575060408051601f3d908101601f1916820190925261424e918101906154c6565b60015b6142fe5761425d6154e3565b806308c379a0141561429757506142726154fe565b8061427d5750614299565b8060405162461bcd60e51b8152600401610d9191906147b2565b505b60405162461bcd60e51b815260206004820152603460248201527f455243313135353a207472616e7366657220746f206e6f6e20455243313135356044820152732932b1b2b4bb32b91034b6b83632b6b2b73a32b960611b6064820152608401610d91565b6001600160e01b0319811663f23a6e6160e01b14613e105760405162461bcd60e51b8152600401610d9190615587565b6001600160a01b0384163b1561381c5760405163bc197c8160e01b81526001600160a01b0385169063bc197c819061437290899089908890889088906004016155cf565b6020604051808303816000875af19250505080156143ad575060408051601f3d908101601f191682019092526143aa918101906154c6565b60015b6143b95761425d6154e3565b6001600160e01b0319811663bc197c8160e01b14613e105760405162461bcd60e51b8152600401610d9190615587565b600082600001828154811061440057614400615115565b9060005260206000200154905092915050565b60006001600160e01b03198216635a05180f60e01b1480610dbf5750610dbf826144a0565b60055460ff161561381c5760405162461bcd60e51b815260206004820152602c60248201527f455243313135355061757361626c653a20746f6b656e207472616e736665722060448201526b1dda1a5b19481c185d5cd95960a21b6064820152608401610d91565b60006001600160e01b03198216637965db0b60e01b1480610dbf57506301ffc9a760e01b6001600160e01b0319831614610dbf565b8280546144e190614f55565b90600052602060002090601f0160209004810192826145035760008555614549565b82601f1061451c57805160ff1916838001178555614549565b82800160010185558215614549579182015b8281111561454957825182559160200191906001019061452e565b50614555929150614559565b5090565b5b80821115614555576000815560010161455a565b6001600160a01b0381168114610ec057600080fd5b634e487b7160e01b600052604160045260246000fd5b601f8201601f191681016001600160401b03811182821017156145be576145be614583565b6040525050565b600082601f8301126145d657600080fd5b81356001600160401b038111156145ef576145ef614583565b604051614606601f8301601f191660200182614599565b81815284602083860101111561461b57600080fd5b816020850160208301376000918101602001919091529392505050565b600080600080600060a0868803121561465057600080fd5b853561465b8161456e565b94506020860135935060408601356001600160401b0381111561467d57600080fd5b614689888289016145c5565b9598949750949560608101359550608001359392505050565b600080604083850312156146b557600080fd5b82356146c08161456e565b946020939093013593505050565b6001600160e01b031981168114610ec057600080fd5b6000602082840312156146f657600080fd5b8135611552816146ce565b60006020828403121561471357600080fd5b81356001600160401b0381111561472957600080fd5b614735848285016145c5565b949350505050565b60006020828403121561474f57600080fd5b81356115528161456e565b60005b8381101561477557818101518382015260200161475d565b838111156118a15750506000910152565b6000815180845261479e81602086016020860161475a565b601f01601f19169290920160200192915050565b6020815260006115526020830184614786565b600080600080600060a086880312156147dd57600080fd5b85356147e88161456e565b945060208601356001600160401b0381111561480357600080fd5b61480f888289016145c5565b9450506040860135925060608601359150608086013560ff8116811461483457600080fd5b809150509295509295909350565b60006020828403121561485457600080fd5b5035919050565b600080600080600080600060e0888a03121561487657600080fd5b87356148818161456e565b9650602088013595506040880135945060608801356001600160401b03808211156148ab57600080fd5b6148b78b838c016145c5565b955060808a01359150808211156148cd57600080fd5b506148da8a828b016145c5565b93505060a0880135915060c0880135905092959891949750929550565b60006001600160401b0382111561491057614910614583565b5060051b60200190565b600082601f83011261492b57600080fd5b81356020614938826148f7565b6040516149458282614599565b83815260059390931b850182019282810191508684111561496557600080fd5b8286015b848110156149805780358352918301918301614969565b509695505050505050565b600080600080608085870312156149a157600080fd5b84356149ac8161456e565b935060208501356001600160401b03808211156149c857600080fd5b6149d48883890161491a565b945060408701359150808211156149ea57600080fd5b6149f68883890161491a565b93506060870135915080821115614a0c57600080fd5b50614a19878288016145c5565b91505092959194509250565b60008060408385031215614a3857600080fd5b50508035926020909101359150565b600080600080600060a08688031215614a5f57600080fd5b8535614a6a8161456e565b94506020860135614a7a8161456e565b935060408601356001600160401b0380821115614a9657600080fd5b614aa289838a0161491a565b94506060880135915080821115614ab857600080fd5b614ac489838a0161491a565b93506080880135915080821115614ada57600080fd5b50614ae7888289016145c5565b9150509295509295909350565b60008060408385031215614b0757600080fd5b823591506020830135614b198161456e565b809150509250929050565b60008060408385031215614b3757600080fd5b8235915060208301356001600160401b03811115614b5457600080fd5b61195e858286016145c5565b60008060408385031215614b7357600080fd5b82356001600160401b0380821115614b8a57600080fd5b818501915085601f830112614b9e57600080fd5b81356020614bab826148f7565b604051614bb88282614599565b83815260059390931b8501820192828101915089841115614bd857600080fd5b948201945b83861015614bff578535614bf08161456e565b82529482019490820190614bdd565b96505086013592505080821115614c1557600080fd5b5061195e8582860161491a565b600081518084526020808501945080840160005b83811015614c5257815187529582019590820190600101614c36565b509495945050505050565b6020815260006115526020830184614c22565b600080600060608486031215614c8557600080fd5b8335614c908161456e565b925060208401356001600160401b0380821115614cac57600080fd5b614cb88783880161491a565b93506040860135915080821115614cce57600080fd5b50614cdb8682870161491a565b9150509250925092565b60008060008060808587031215614cfb57600080fd5b8435614d068161456e565b9350602085013592506040850135915060608501356001600160401b03811115614d2f57600080fd5b614a19878288016145c5565b600080600060608486031215614d5057600080fd5b833592506020840135614d628161456e565b929592945050506040919091013590565b60008060408385031215614d8657600080fd5b8235614d918161456e565b915060208301358015158114614b1957600080fd5b60008060408385031215614db957600080fd5b8235614dc48161456e565b915060208301356001600160401b03811115614ddf57600080fd5b61195e8582860161491a565b60008060408385031215614dfe57600080fd5b8235614e098161456e565b91506020830135614b198161456e565b600080600080600060a08688031215614e3157600080fd5b8535614e3c8161456e565b94506020860135614e4c8161456e565b9350604086013592506060860135915060808601356001600160401b03811115614e7557600080fd5b614ae7888289016145c5565b600080600060608486031215614e9657600080fd5b8335614ea18161456e565b95602085013595506040909401359392505050565b60208082526031908201527f455243313135355472616461626c65236f776e6572734f6e6c793a204f4e4c5960408201527017d3d41154905513d497d0531313d5d151607a1b606082015260800190565b6020808252602e908201527f455243313135355472616461626c65236f776e6572734f6e6c793a204f4e4c5960408201526d17d05113525397d0531313d5d15160921b606082015260800190565b600181811c90821680614f6957607f821691505b6020821081141561155957634e487b7160e01b600052602260045260246000fd5b634e487b7160e01b600052601160045260246000fd5b60008219821115614fb357614fb3614f8a565b500190565b6001600160a01b03848116825283166020820152606060408201819052600090614fe490830184614786565b95945050505050565b60008351614fff81846020880161475a565b60609390931b6bffffffffffffffffffffffff19169190920190815260140192915050565b6000825161503681846020870161475a565b9190910192915050565b600060018060a01b03808816835286602084015285604084015260a0606084015261506e60a0840186614786565b91508084166080840152509695505050505050565b600081600019048311821515161561509d5761509d614f8a565b500290565b6000826150bf57634e487b7160e01b600052601260045260246000fd5b500490565b60208082526031908201527f455243313135355472616461626c652363726561746f724f6e6c793a204f4e4c6040820152701657d0d491505513d497d0531313d5d151607a1b606082015260800190565b634e487b7160e01b600052603260045260246000fd5b600060001982141561513f5761513f614f8a565b5060010190565b60208082526029908201527f455243313135353a2063616c6c6572206973206e6f74206f776e6572206e6f7260408201526808185c1c1c9bdd995960ba1b606082015260800190565b6000602082840312156151a157600080fd5b81516115528161456e565b6000816151bb576151bb614f8a565b506000190190565b6080815260006151d66080830187614786565b6001600160a01b0395861660208401529390941660408201526060015292915050565b60408152600061520c6040830185614786565b90508260208301529392505050565b60208082526021908201527f455243313135353a206d696e7420746f20746865207a65726f206164647265736040820152607360f81b606082015260800190565b60208082526028908201527f455243313135353a2069647320616e6420616d6f756e7473206c656e677468206040820152670dad2e6dac2e8c6d60c31b606082015260800190565b6040815260006152b76040830185614c22565b8281036020840152614fe48185614c22565b60208082526025908201527f455243313135353a207472616e7366657220746f20746865207a65726f206164604082015264647265737360d81b606082015260800190565b6020808252602a908201527f455243313135353a20696e73756666696369656e742062616c616e636520666f60408201526939103a3930b739b332b960b11b606082015260800190565b7f416363657373436f6e74726f6c3a206163636f756e742000000000000000000081526000835161539081601785016020880161475a565b7001034b99036b4b9b9b4b733903937b6329607d1b60179184019182015283516153c181602884016020880161475a565b01602801949350505050565b60208082526023908201527f455243313135353a206275726e2066726f6d20746865207a65726f206164647260408201526265737360e81b606082015260800190565b60208082526024908201527f455243313135353a206275726e20616d6f756e7420657863656564732062616c604082015263616e636560e01b606082015260800190565b60008282101561546657615466614f8a565b500390565b634e487b7160e01b600052603160045260246000fd5b6001600160a01b03868116825285166020820152604081018490526060810183905260a0608082018190526000906154bb90830184614786565b979650505050505050565b6000602082840312156154d857600080fd5b8151611552816146ce565b600060033d1115612f365760046000803e5060005160e01c90565b600060443d101561550c5790565b6040516003193d81016004833e81513d6001600160401b03816024840111818411171561553b57505050505090565b82850191508151818111156155535750505050505090565b843d870101602082850101111561556d5750505050505090565b61557c60208286010187614599565b509095945050505050565b60208082526028908201527f455243313135353a204552433131353552656365697665722072656a656374656040820152676420746f6b656e7360c01b606082015260800190565b6001600160a01b0386811682528516602082015260a0604082018190526000906155fb90830186614c22565b828103606084015261560d8186614c22565b90508281036080840152611385818561478656fe4d6574615472616e73616374696f6e286e6f6e63652c66726f6d2c7369676e617475726529828634d95e775031b9ff576b159a8509d3053581a8c9c4d7d86899e0afcd882f6d696e744e4654206572632d313135352025732c206f776e65722025732c20746f74616c20257397667070c54ef182b0f5858b034beac1b6f3089aa2d3188bb1e8929f4fa9b92965d7a28e3265b37a6474929f336521b332c1681b933f6cb9f3376673440d862a9f2df0fed2c77648de5860a4cc508cd0818c85b8b8a1ab4ceeef8d981c8956a6a26469706673582212209942ffc6bee71fcf4acf697ffe4fe4b5bab813ce5f88d1da09c66e7af43748bf64736f6c634300080c0033454950373132446f6d61696e28737472696e67206e616d652c737472696e672076657273696f6e2c6164647265737320766572696679696e67436f6e74726163742c627974657333322073616c742965d7a28e3265b37a6474929f336521b332c1681b933f6cb9f3376673440d862a9f2df0fed2c77648de5860a4cc508cd0818c85b8b8a1ab4ceeef8d981c8956a6",
  "linkReferences": {},
  "deployedLinkReferences": {}
}